:020000040800F2
:10000000480B0020BD010008912600086D22000861
:100010008D26000859060008F12A0008000000009B
:10002000000000000000000000000000E52A0008B9
:100030000508000800000000E12A0008E92A00087D
:10004000D7010008D7010008D7010008D701000830
:10005000D7010008D7010008D7010008D701000820
:10006000D7010008D7010008D7010008D701000810
:10007000D7010008D7010008D7010008D701000800
:10008000D7010008D7010008D7010008D7010008F0
:10009000D7010008D7010008D7010008D7010008E0
:1000A000D7010008D7010008D7010008D7010008D0
:1000B000D7010008D701000800000000D7010008A0
:1000C000D70100080000000000000000D701000870
:1000D00000000000D7010008D70100080000000060
:1000E000D7010008D7010008D701000800F002F886
:1000F00000F055F814A696E8000CB244B344DA4573
:1001000001D100F04CF8BAE80F000FA696E83000D5
:10011000A5EB040504EB0607AAEB0704A7F101070A
:100120004FEA15154FEA3414A4F10104AC4201D38F
:1001300000F035F813F0010F18BFFB1A43F001036C
:1001400000F001F8DBE71847502F0000702F000087
:10015000103A24BF78C878C1FAD8520724BF30C8F3
:1001600030C144BF04680C60704700007047000055
:100170000023002400250026103A28BF78C1FBD8B0
:10018000520728BF30C148BF0B607047642900F098
:100190007D80002070471FB51FBD10B510BD00F059
:1001A000C8F91146FFF7F7FF02F0A4FC00F0E6F9EA
:1001B00003B4FFF7F2FF03BC00F0EEF909488047F3
:1001C00009480047FEE7FEE7FEE7FEE7FEE7FEE739
:1001D000FEE7FEE7FEE7FEE704480549054A064B51
:1001E00070470000ED2A0008ED00000848050020D7
:1001F000480B002048070020480700200FB41CB51A
:10020000074B06AA7B4469460090059800F047F921
:100210000020694600F056F91CBC5DF814FB000094
:10022000BD0200002DE9F0410E4604460020206288
:100230002046E168884730B3252805D0D4E901215C
:100240009047206A401CF2E7E16820460027884773
:10025000050018D0A5F14100192802D820354FF427
:1002600000673246294620462760FFF78FFF40B1DE
:10027000012804D0F61D26F007060836D8E7361DFB
:10028000D6E72846DAE7206ABDE8F0812DE9F0419B
:100290000646002410687529314616A510D0AFF324
:1002A0000080002802DA404213A507E031688A077F
:1002B00001D512A502E0490704D511A5012401E0EA
:1002C000AFF3008000210A2206F1240709E0B0FB09
:1002D000F2FCB0FBF2F302FB1C00303078541846FD
:1002E000491C0028F3D123462A463046BDE8F04198
:1002F00000F077B8000000002D0000002B00000087
:1003000020000000032A40F2308010F0030C00F0BF
:10031000158011F8013BBCF1020F624498BF11F83F
:1003200001CB00F8013B38BF11F8013BA2F10402F8
:1003300098BF00F801CB38BF00F8013B11F0030370
:1003400000F0C580083AC0F0088051F8043B083A34
:1003500051F804CBA0E80810F5E7121D5CBF51F876
:10036000043B40F8043BAFF30080D20724BF11F8F0
:10037000013B11F801CB48BF11F8012B24BF00F855
:10038000013B00F801CB48BF00F8012B70474FF04C
:10039000000200B5134694469646203922BFA0E8D5
:1003A0000C50A0E80C50B1F12001BFF4F7AF0907E1
:1003B00028BFA0E80C5048BF0CC05DF804EB8900D2
:1003C00028BF40F8042B08BF704748BF20F8022B15
:1003D00011F0804F18BF00F8012B7047704770472D
:1003E00070472DE9F0470D4699469246044600F1C4
:1003F00024080168880604D5E06921F01001216015
:1004000000E00120A84201DD471B00E00027A169B0
:100410007A1902EB0900081AA0612078C00602D4FC
:100420002046AFF30080002608E0D4E901211AF845
:1004300006009047206A401C761C20624E45F4DB83
:100440002078C0060AD52046AFF3008006E0D4E944
:10045000012130209047206A401C2062381EA7F1FD
:100460000107F4DC07E0D4E9012118F80500904702
:10047000206A401C2062281EA5F10105F3DC2046FD
:10048000AFF300802078000602D50220BDE8F08797
:100490000120FBE701694A1C02610878704700B53A
:1004A0008FB0CDE901310021059105497944CDE9AD
:1004B000031011466846FFF7B5FE0FB000BD0000FF
:1004C000E5FFFFFF0A6802F8010B0A60704710B5EC
:1004D000203AC0F00B80B1E81850A0E81850B1E8FD
:1004E0001850A0E81850203ABFF4F5AF5FEA027C3C
:1004F00024BFB1E81850A0E8185044BF18C918C06C
:10050000BDE810405FEA827C24BF51F8043B40F80C
:10051000043B08BF7047D20728BF31F8023B48BFF1
:1005200011F8012B28BF20F8023B48BF00F8012B2F
:100530007047754600F02CF8AE46050069465346F4
:1005400020F00700854618B020B5FFF745FEBDE84E
:1005500020404FF000064FF000074FF000084FF02A
:10056000000BAC46ACE8C009ACE8C009ACE8C00977
:10057000ACE8C00921F007018D46704710B504466C
:10058000AFF300802046BDE81040FFF711BE000029
:10059000004870471000002001491820ABBEFEE75C
:1005A0002600020070470000B0B582B0044600206B
:1005B000019021688A68D2074BD1886840F0010019
:1005C000886040F20800C2F2000000684DF68361C6
:1005D000C4F21B31A0FB0101880C01900198A0B16D
:1005E000019801380190019878B101980138019083
:1005F000019850B1019801380190019828B10198F3
:100600000138019001980028EAD100F081FD2168AD
:100610008968C9071CD1054603E000BF8068C00790
:1006200016D100F075FD411B20680329F6D38168BF
:10063000C907F3D1A06A40F01000A062E06A40F060
:100640000100E062002084F82400012002B0B0BD67
:10065000002002B0B0BD0000FEE700002DE9F04F21
:1006600087B08246202040F6000600240390012037
:10067000C4F20106CDE9040402208846069003A9CD
:1006800030468DF80840019400F036FC30462021B9
:10069000002200F037FD122000F01AFC3046202125
:1006A000012200F02FFD40F2A407C2F200073868D3
:1006B000446200BF416A1D2908D8416A1D2905D836
:1006C000416A1D2902D8416A1E29F3D30020202146
:1006D0000690CDE903100120059003A9304600F0F3
:1006E0000BFC3868456A00BF3046202100F004FD4D
:1006F00039684C6A60B1601B80B26528F4D3002071
:1007000007B0BDE8F08F00BF281B80B26528F6D285
:100710003046202100F0F0FC396801284D6AF3D101
:1007200006E000BF3868406A401B80B26528E6D208
:100730003046202100F0E0FC0028F3D100250DF127
:10074000040B4FF000093868446A00BF304620218E
:1007500000F0D2FC3968012806D0486A001B80B23C
:100760006528F3D3CBE700BF4D6200BF486A272856
:1007700008D8486A272805D8486A272802D8486A2E
:100780002828F3D33046202100F0B6FC01280CD1F4
:1007900007204FEAD90120EA09001BF801200123B4
:1007A00003FA00F010430BF801003868446A00BFF8
:1007B0003046202100F0A0FC30B13868406A001BB0
:1007C00080B26528F4D39AE7B9F1270F09F101093E
:1007D000B9D39DF804009DF805209DF806109DF8FA
:1007E000073002440A441A449DF80830D2B29A42B3
:1007F0007FF485AF88F800008AF80010012007B068
:10080000BDE8F08F7047000070B581B00022009203
:1008100090F82420012A03D10221084601B070BDBE
:100820004A680123062A02EB820E80F8243007D89A
:10083000D0F800C06FF004030CF134060CE000BFE8
:10084000D0F800C00C2A87BF0CF12C066FF04003D3
:100850000CF130066FF022030EEB03021F23346805
:1008600003FA02F50B6824EA050503FA02F22A43AB
:100870003260092B03EB43021AD9DCF80C601E3AF4
:10088000072589689540AE43914023F0010231432A
:10089000102ACCF80C1015D142F20041C4F201012B
:1008A0008C4517D0816A41F02001816201210AE064
:1008B000DCF81030072689689640B343914019430D
:1008C000CCF810100021002280F82420084601B046
:1008D00070BD00BF89680902F4D4DCF80810102B41
:1008E00041F40001CCF80810ECD140F20801C2F24A
:1008F000000109684DF68362C4F21B32A1FB0212AB
:10090000910C01EB81014900009100990029D9D097
:1009100000990139009100990029D3D0009901393B
:10092000009100990029CDD00099013900910099DA
:100930000029C7D0009901390091009900294FF092
:100940000001E5D1BFE700000068C06C70470000FF
:10095000002804BF01207047B0B50446806A28B162
:1009600021688868C0070CD115E000BF0020E06254
:1009700084F82400204600F097F821688868C007B2
:1009800009D0886820F00100886000F0C1FB216870
:100990008A68D20726D1A06AC0063AD4A06A41F27A
:1009A000021290430230A062E069D4E9013240EAC9
:1009B000030C531EB3FA83F35D091346B2F5807F2F
:1009C00018BF2B02207D257B01284CEA45002CD145
:1009D00035B3A56A45F02005A562E56A45F0010535
:1009E000E56222E0054602E08868C007D3D000F047
:1009F0008FFB401B21680328F6D38868C007F3D01B
:100A0000A06A40F01000A062E06A40F00100E062DD
:100A1000A06AA06A40F01000A0620120B0BD00BF33
:100A2000A56903EB4533A3F5C0534D68B2F5807F4C
:100A300025F4694543EA05034B608B684FF2FD7569
:100A4000CFF6E17503EA050343EA00038B6001D0AA
:100A5000012A07D122690023CFF6F07303EB02527B
:100A600001E000BF0022CB6A23F470031A43CA627C
:100A7000896840F6FE62CFF61F721140814207D1AD
:100A80000020E062A16A012262F30101A162B0BD0F
:100A9000A06A40F0100020F00200A062E06A40F07E
:100AA0000100E0620120B0BD80B586B0014640F68D
:100AB0000000C4F20100096800F5E05291424FF0D5
:100AC0000001CDE90411CDE9021101D006B080BDCD
:100AD00041F21801C4F202010A6842F400720A608D
:100AE0000A6802F400720192019A0A6842F0040254
:100AF0000A60096801F0040101910199082102913D
:100B00000321039102A900F0F7F906B080BD0000AF
:100B10002DE9F04182B000270D460446019700F010
:100B2000F7FA21688A68D20544D406464868C005A9
:100B300003D4C86A10F4700F46D040F20800C2F225
:100B40000000076842F292480220C1F2492800F0F2
:100B50005DFD216844F624130A69B7FBF0F0C2F288
:100B600092431A4206D1CA6844F62413C0F2920393
:100B70001A425BD00A6912EA080F07D1CA6842F22A
:100B80009243C0F249031A4200F0C0800A6949F258
:100B90004923C0F224031A424FF0FC0254D1CF681B
:100BA0001F4208BF5422019B02FB00F7BB4250D3F7
:100BB000C3E000BFA06A40F02000A06284F8247067
:100BC000012002B0BDE8F0810868800700F1B5801F
:100BD000681C00F0A880FDB90868800770D5086817
:100BE000800700F1AA800868800769D50868800737
:100BF00000F1A3800868800762D50868800700F1CB
:100C00009C80086880075BD508688007E4D594E07D
:100C10000868800700F1918000F07AFA801B216853
:100C2000A842F5D908688007F2D449E00A6912EAB7
:100C3000080F4FF0290207D1CB6842F29247C0F269
:100C400049073B4208BF1422019B02FB00F7BB424D
:100C500073D2681C52D05DBB0198B84230D3019862
:100C6000013001900198B84267D20198B84227D369
:100C70000198013001900198B8425ED20198B842C3
:100C80001ED30198013001900198B84255D20198C5
:100C9000B84215D30198013001900198B842DBD3D6
:100CA0004BE000BF0198013001900198B84235D265
:100CB00000F02EFA801BA842F4D90198B842F1D274
:100CC000A06A40F00400A062002084F82400032001
:100CD00002B0BDE8F08100BF019801300190019899
:100CE000B8422AD20198013001900198B84224D22A
:100CF0000198013001900198B8421ED2019801304C
:100D000001900198B842E7D317E000BF5422019B3D
:100D100002FB00F7BB429CD30FE000BF21680CE050
:100D20000868800709D40868800706D40868800727
:100D30005CBF08685FEA8070F2D56FF0120008604F
:100D4000A06A40F40070A062886800F46020B0F5EA
:100D5000602F01D1207B18B1002002B0BDE8F081E6
:100D6000A06A20F48070A062A06AC004F4D4A06AD3
:100D700040F00100A062002002B0BDE8F081000058
:100D800010B5044690F82400012804BF022010BDCD
:100D9000012084F824002046FFF706FC20B1002043
:100DA00084F82400012010BD42F2044C2068A16A9E
:100DB000C4F2010C40F2013291430CF57F7201F54F
:100DC00080719042A16229D0A16A21F48011A162B0
:100DD0004168490504D5A16A012363F30D31A1627D
:100DE000A16A0023C9044FF0000144BFE16A21F069
:100DF0000601E1626FF0020184F82430016081682D
:100E000001F46021B1F5602F1BD1904214D08168AC
:100E100041F4A0018160002010BD00BFDCF800108B
:100E200011F4702FD0D0A16A41F48011A162DCF8D6
:100E300000104905CFD4D3E7DCF8001011F4702F6F
:100E4000E5D0816841F480118160002010BD000070
:100E5000B0B5044690F82400012804BF0220B0BDBC
:100E60000121206884F824108168C90709D08168AD
:100E700021F00101816000F04BF921688968C90700
:100E80000ED1214651F8280F41F2011220EA020248
:100E9000002042F001020A60002184F82410B0BD55
:100EA000054602E08068C007EBD000F031F9411B35
:100EB00020680329F6D38168C907F3D0A06A2146C8
:100EC00040F01000A06251F82C2F0120E1E7000053
:100ED000B0B5044600F01CF9054640F20000C2F22D
:100EE00000000078611C18BF044400BF00F010F936
:100EF000401BA042FAD3B0BD2DE9F04F82B00E687E
:100F0000002E00F0F58041F20002C4F2010203233A
:100F100040F2004E904208BF02234FF6FF7CC4F21D
:100F2000010E009300240123C1F2100C4FF0000BBE
:100F30004FF0000944E000BF002704F00C030F222B
:100F40009A402AEA020207FA03F34FEA9B051A4382
:100F500046F825204E6840F20C45F202DEF80820E3
:100F600054BF22EA080242EA0802C4F20105CEF8A0
:100F700008202A68B30254BF22EA080242EA0802A3
:100F80002A60B303DEF8042054BF22EA080242EAD2
:100F90000802F303CEF80420DEF800204FF001032E
:100FA00054BF22EA080242EA0802CEF800200E6886
:100FB0000BF1010B36FA0BF204F1040400F09880F7
:100FC00003FA0BFA16EA0A08F1D04E68664511DCFE
:100FD000122E55D8DFE806F0340A4C4854545454C5
:100FE000545454545454545454445000D1F80C9014
:100FF00046E000BF4FF6FF72C1F2210296420FDCBD
:101000000022C1F2110296421AD00022C1F212024D
:10101000964215D00022C1F22102964210D02FE054
:101020000022C1F2220296420AD00022C1F231020D
:10103000964205D00022C1F23202964220D100BF72
:101040008A684AB1012A14BFC0F814A0C0F810A0E1
:101050004FF0080914E000BF4FF0040910E000BF92
:10106000CA6802F104090BE04FF0000908E000BF74
:10107000CA6802F1080903E0CA6802F10C0900BF5E
:1010800002462646B8F5807F24BF0432203E17680A
:101090000F25B54027EA050509FA06F63543156020
:1010A000CA79D2067FF583AF41F21803C4F2020376
:1010B0001A68AEF57E7642F001021A601A6802F0F4
:1010C00001020192019A2BF0030256F802A040F6A9
:1010D0000002C4F2010290423FF42EAF40F60042FB
:1010E000C4F20102009F904208BF012725E700BF1C
:1010F00002B0BDE8F08F00008068084018BF0120F2
:1011000070470000002A08BF090401617047000011
:1011100040F24050C2F2000000687047002804BF4F
:1011200001207047F0B581B0044690F83D0028B921
:10113000002084F83C00204600F090F9242084F838
:101140003D002068016821F001010160016841F45F
:1011500000410160016821F40041016000F032FCAF
:10116000636848F2A16CC0F2010C40F60011C0F2B5
:101170003D0163453CBF48F28041C0F21E018842F8
:1011800002D2012001B0F0BD4DF68361C4F21B31E3
:10119000A0FB01122168970CD1F804E04FF4967679
:1011A0002EF03F0545EA92454D60774348F63816E4
:1011B0000D6AC0F24106A7FB067625F03F0763459E
:1011C00038BF960C721C3A430A62CA6948F2A0669C
:1011D0004CF6FF77C0F20106B34222EA07020BD8B1
:1011E00001385B00B0FBF3F001306FF31F300428CF
:1011F00098BF04201BE000BFA768013857B119272A
:101200007B43B0FBF3F001306FF31F3070B100F59A
:10121000804007E003EB4303B0FBF3F001306FF3D2
:101220001F3018B100F5004001E000BF012010435D
:10123000C8610868D4E9072320F0C00010431843B0
:101240000860886848F2FF3204F10C0790438CCFA5
:1012500018431043A6698860C86820F0FF0038432F
:101260003043C860086840F0010008600020202179
:10127000206484F83D10206384F83E0001B0F0BD86
:101280002DE9F04383B01E46174689460446FFF712
:101290003FFF94F83D10202924D10546206800BF67
:1012A000816989071AD5FFF733FF411B20681A2986
:1012B000F6D381698907F3D500202021206384F8C3
:1012C0003D1084F83E00216C41F02001216484F837
:1012D0003C00022003B0BDE8F08300BF94F83C104E
:1012E000012903D1022003B0BDE8F083012184F875
:1012F0003C100168C90703D1016841F00101016098
:10130000016840F2020821F400610160212184F8A3
:101310003D10102184F83E1000212164676266852B
:10132000618DC0F201082185A8F10211E162E16A34
:101330000A9E11F5803F18BF01291DD1016841F4B3
:101340008071016020464FF0011100223346009564
:1013500000F0ECFF50B120680068C00544BF4FF4B6
:1013600000702064012003B0BDE8F0832069B0F56F
:10137000804F07D1FE2015E00829DFD0216B12290C
:10138000DCD0DFE7062000EAD9102168F0300861E0
:1013900008F10601204632462B4601F0ADF8002840
:1013A000E0D1FF20216800EA09000861204641469B
:1013B00032462B4601F0A0F80028D3D1002002903D
:1013C00020684169029180690290029806E000BF9E
:1013D000204631462A4600F04BFF18BB208D68B3EB
:1013E000204631462A4601F0F3F8D8B9606A2168F0
:1013F000024612F8013B0B616262628D013A62851E
:10140000228D531E23854F697F07E1D51B04DFD052
:10141000437802300B616062608D01386085901EF8
:101420002085D5E7206C04289CD12068016841F410
:1014300000710160012003B0BDE8F08320680168FD
:1014400041F400710160202084F83D00002084F800
:101450003E0084F83C0003B0BDE8F08310B586B0D0
:1014600045F200410068C4F2000100228842CDE943
:1014700004220392029201D006B010BD41F218047A
:10148000C4F20204206840F008002060206800F0E8
:10149000080001900198C02002901220CDE90302BB
:1014A0000320059001F5384002A9FFF725FD60688B
:1014B00040F400106060606800F400100190019832
:1014C00006B010BD40F2000040F24051C2F20000F0
:1014D000C2F2000100780A681044086070470000FA
:1014E00080B542F20000C4F20200016841F0100130
:1014F0000160032000F07AF80F2000F005F800F0FA
:1015000027F8002080BD000070B540F20006C2F24E
:10151000000640F208013278C2F200014FF47A73FB
:101520000968B3FBF2F20446B1FBF2F1084600F0A1
:1015300071FC0F2C4FF0010508D838B94FF0FF307F
:1015400021460022002500F025F87460284670BD71
:1015500082B041F21800C4F202000168022241F098
:1015600001010160016801F00101019101994168E7
:1015700041F080514160406800F080500090009838
:101580000420C4F20100016862F31A61016002B034
:101590007047000010B54EF60C5CCEF2000CDCF883
:1015A0000030C3F3022E8EF00704042C28BF04245D
:1015B000BEF103034FF0FF3E0EFA04F438BF0023E0
:1015C000A14399400EFA03F39A43114300F00F022E
:1015D00000F160430901043A03F5644362440028C2
:1015E00048BF02F10C03197010BD00004EF60C51FB
:1015F000CEF200010A684FF6FF031A4060F30A2298
:1016000042F0806040F0FD7008607047012821D0F2
:1016100002280DD0102808D141F20401C4F20201C1
:101620000A6851F8040CC00134D40020704700BF90
:1016300080B500F0DBF941F20401C4F2020109684F
:101640000222C1F3813102EB4101B0FBF1F0BDE8B0
:101650008040704741F20400C4F20200C16940F2C8
:1016600002320A40B2F5817F04BF4FF40040704758
:1016700001F44071B1F5407F18D0B1F5007F1CBF77
:1016800000207047006A49F64041800701EAE07097
:10169000704700BFC2F3834015A3185CD2030DD47A
:1016A00040F60012C0F23D02504313E050F8040C23
:1016B0004FF22441800301EAE07070470A6810A3EA
:1016C000C2F340429A5C41F20023C0F27A03B3FBBA
:1016D000F2F250430968490248BF70474AF6AB210D
:1016E0004000CAF6AA21A0FB01014808704700BFCC
:1016F00002030405060708090A0B0C0D0E0F101053
:10170000010200002DE9F04182B00446007841F268
:101710001C06C007C4F202064AD030685FEAC0085F
:1017200008D4306840F080503060306800F080505D
:101730000190019847F20007C4F200073868C0051D
:1017400012D4386840F480703860FFF7E1FC054639
:101750003868C00508D4FFF7DBFC401B6428F7D9C4
:10176000032002B0BDE8F081706810F4407012D020
:10177000616801F4407188420DD0706840F24042C7
:10178000C4F24222012320F4407113600023C007F9
:101790001360716026D17068616820F4407008435E
:1017A000B8F1000F706003D4306820F080503060D2
:1017B0002068810707D556F8181CA26821F440411B
:1017C000114346F8181CC00607D556F8180CE168F6
:1017D00020F48000084346F8180C002002B0BDE851
:1017E000F08100BFFFF794FC054641F2883700BF47
:1017F00070688007CFD4FFF78BFC401BB8424FF0D6
:101800000300F5D9EAE70000002804BF0120704773
:101810002DE9F04381B042F20008C4F20208044608
:10182000D8F800000D4600F0070081420CD9D8F826
:10183000000020F007002843C8F80000D8F8000096
:1018400000F00700A8426CD1206841F2040981072A
:10185000C4F2020917D5410705D5D9F8001041F4A3
:10186000E061C9F80010010705D5D9F8001041F46E
:101870006051C9F80010D9F80010A26821F0F001F9
:101880001143C9F80010C00742D1D8F8000000F099
:10189000070085420CD2D8F8000020F0070028434A
:1018A000C8F80000D8F8000000F00700A84238D1BE
:1018B0002068410707D5D9F80010E26821F4E061FB
:1018C0001143C9F80010000708D5D9F800002169B4
:1018D00020F4605040EAC100C9F80000D9F80020A7
:1018E00002F00C00082841F20020C0F27A004DD12D
:1018F00043F28503C2F38341C0F60003595CD2036F
:1019000038D440F60010C0F23D0048433EE000BF2E
:10191000606859F8041C022808D0012826D18903E0
:1019200006D4012001B0BDE8F08300BF8901F8D5DD
:10193000D9F8001021F003010843C9F80000FFF7AF
:10194000E7FB064641F28837D9F80000616800F0ED
:101950000C00B0EB810F98D0FFF7DAFB801BB84288
:10196000F2D9032001B0BDE8F08300BF8907D8D5C4
:10197000DEE700BFD9F8002043F28303C2F3404200
:10198000C0F600039A5C4843B0FBF2F0D9F80010AF
:1019900042F69062C1F30311C0F60002515C40F2BE
:1019A000080220FA01F140F20400C2F200000068CF
:1019B000C2F200021160FFF7A7FD002001B0BDE8F0
:1019C000F083000040F2080041F20401C2F200007E
:1019D000C4F202010068096842F6A062C1F3022164
:1019E000C0F60002515CC8407047000040F2080099
:1019F00041F20401C2F20000C4F202010068096869
:101A000042F6A062C1F3C221C0F60002515CC84098
:101A100070470000002804BF012070472DE9F04105
:101A200082B00446007841F20006C007C4F2020604
:101A30000CD0706800F00C00042840F08180306801
:101A4000800303D56068002800F046812078800775
:101A50001BD5706810F00C0F09D0706800F00C00F6
:101A6000082840F087807068C00300F183803068E8
:101A7000800703D52069012840F02E813068616914
:101A800020F0F80040EAC10030602078000713D44D
:101A9000207840072CD4E569002D00F0188170688B
:101AA00000F00C00082840F0A780012D40F00481D0
:101AB000012002B0BDE8F081A069002800F0848018
:101AC0000020C4F242200121C0F88014FFF720FB5F
:101AD000054600BF706A800700F1B280FFF718FB6F
:101AE000401B0228F6D9032002B0BDE8F08100BFF8
:101AF000F0695FEAC00808D4F06940F08050F061F6
:101B0000F06900F080500090009847F20007C4F29E
:101B100000073868C00549D4386840F480703860E0
:101B2000FFF7F6FA054600BF3868C0053ED4FFF758
:101B3000EFFA401B6428F7D9032002B0BDE8F0811A
:101B4000706800F00C00082803D17068C0033FF5EE
:101B500076AF61683068002900F00C81B1F5A02FE4
:101B600000F00081B1F5803F40F01A8140F48030F0
:101B70001CE100BF2069002840F20000C4F24220AE
:101B800000F0888001210160FFF7C2FA054600BF1E
:101B9000306880073FF572AFFFF7BAFA401B0228A2
:101BA000F6D9032002B0BDE8F08100BFE168306AD9
:101BB000002900F09D80052900F09280012940F065
:101BC000AF8040F00100B1E00020C4F242200021CB
:101BD000C0F88014FFF79CFA054600BF706A8007C2
:101BE0007FF556AFFFF794FA401B0228F6D9032081
:101BF00002B0BDE8F08100BF0027C4F242270020F8
:101C00003866FFF785FA022D05460DD13068800150
:101C100040F1DE80FFF77CFA401B02284FF0030002
:101C2000F4D902B0BDE8F081306880014FD5FFF7EC
:101C30006FFA401B02284FF00300F5D9F1E700BF0F
:101C400040F20800C2F20000006844F6D351C1F22D
:101C50006201A0FB0101480A019000BF00BF01988A
:101C6000411E002801913FF413AF00BF0198411EAF
:101C7000002801913FF40CAF00BF0198411E0028DD
:101C800001913FF405AF00BF0198411E002801916A
:101C9000E4D1FDE600210160FFF73AFA054600BFF6
:101CA000306880077FF5F1AEFFF732FA401B02285B
:101CB0004FF00300F4D9B4E77068216A00F4803271
:101CC0008A4209D1616A00F47010884204D1002070
:101CD00002B0BDE8F08100BF012002B0BDE8F08194
:101CE00040F004003062306A40F001001EE000BFA6
:101CF00020F001003062306A20F004003062FFF70B
:101D000007FA054641F28837306A800720D5FFF789
:101D1000FFF9401BB8424FF00300F5D981E700BF3F
:101D200020F001003062306A20F004003062FFF7DA
:101D3000EFF9054641F28837306A800708D4FFF78B
:101D4000E7F9401BB842F7D9032002B0BDE8F081A3
:101D5000B8F1000F3FF59FAEF06920F08050F061C0
:101D600099E600BF40F480203060306840F4803055
:101D70001CE000BF20F480303060306820F4802008
:101D80003060FFF7C5F90546306880037FF55EAE29
:101D9000FFF7BEF9401B64284FF00300F4D940E779
:101DA00020F480303060306820F480203060FFF70D
:101DB000AFF90546306880033FF548AEFFF7A8F954
:101DC000401B6428F6D9032002B0BDE8F08100BFB3
:101DD000206AB0F5803F05D17168A26821F4003116
:101DE000114371607168626A21F4741111430843F0
:101DF000706001203866FFF78BF904463068800177
:101E00003FF565AFFFF784F9001B02284FF0030090
:101E1000F4D906E7411E0020B0EB116F1CBF012072
:101E200070474EF21002CEF2000251604EF623517E
:101E3000CEF20001F0230B70072190601160704713
:101E400090F83C20012A4FF0020228D010B580F80B
:101E50003D200268D2F804E0D2F808C00C682EF0E9
:101E600070032343B2F1804F53600BD042F600431E
:101E7000C4F201039A4205D040F20043C4F20003C9
:101E80009A4204D149682CF08003194391600121E2
:101E9000002280F83D1080F83C20BDE8104010463C
:101EA00070470000002804BF0120704710B590F86B
:101EB0003D1031B9002180F83C10044600F05CF878
:101EC0002046022180F83D10016842F6004C0B6864
:101ED000B1F1804FC4F2010C18BF61453CD1846858
:101EE00023F070032343B1F1804F18BF61453BD10C
:101EF000046923F440732343826923F08003D0F8FC
:101F000004E0C4681A4361450A60CC62C1F828E065
:101F100002D14269CCF8302001224A610B69DB070B
:101F200003D00B6923F001030B6180F8462080F891
:101F30003E2080F83F2080F8402080F8412080F843
:101F4000422080F8432080F8442080F8452080F823
:101F50003D20002010BD00BF40F20044C4F2000448
:101F6000A142BCD0BFE700BF40F20044C4F200046D
:101F7000A142BDD0C0E700000068B0F1804F18BF9B
:101F8000704781B041F21C00C4F20200016841F0C8
:101F900001010160006800F001000090009801B0AC
:101FA0007047000090F83D1001291CBF01207047C8
:101FB000022180F83D100068B0F1804F0BD042F64E
:101FC0000041C4F20101884205D040F20041C4F250
:101FD0000001884206D1816801F00701062904BF8B
:101FE00000207047016841F0010101600020704746
:101FF00090F83C20012A4FF002026CD080B580F8A6
:102000003D20D0F800C04FF67772DCF8083023EAA4
:102010000202CCF808200B684F2B29DC1F2B45DD72
:10202000202B46D0302B44D0402B40F0AF80D1F84D
:1020300004E0C968DCF82030DCF8202022F001023E
:10204000CCF82020DCF8182022F0F00242EA01113E
:1020500023F00A0242EA0E02CCF81810CCF8202035
:10206000DCF8081041F0470121F0300128E000BF02
:102070006F2B33DDB3F5005F74D0B3F5805F21D0F3
:10208000702B40F08380D1E901E3C968DCF80820B7
:1020900043EA0E0322F47F4243EA01211143CCF8C4
:1020A0000810DCF8081041F0770109E00BB1102BA3
:1020B0006CD1DCF8081021F07001194341F00701E0
:1020C000CCF808100022012180F83D10002180F892
:1020D0003C10BDE880401046704700BF502B21D017
:1020E000602B53D1D1F804E0C968DCF82030DCF86B
:1020F000202022F01002CCF82020DCF8182022F456
:10210000704242EA013123F0A00242EA0E12CCF8FA
:102110001810CCF82020DCF8081041F0670121F0FD
:102120001001CDE7D1F804E0C968DCF82030DCF814
:10213000202022F00102CCF82020DCF8182022F028
:10214000F00242EA011123F00A0242EA0E02CCF840
:102150001810CCF82020DCF8081041F0570121F0CD
:102160002001ADE7D1E901E3C968DCF8082043EAC2
:102170000E0322F47F4243EA01211143CCF80810F8
:10218000DCF8081041F480419AE700BF01229AE789
:10219000F0B581B040F60004C4F2010420464FF4CB
:1021A000805100220026FEF7ADFF40F2A405C2F2E6
:1021B00000052868466200BF416A012908D8416AC3
:1021C000012905D8416A012902D8416A0229F3D3BD
:1021D00020464FF480510122FEF794FF2868002129
:1021E000416200BF416A092908D8416A092905D816
:1021F000416A092902D8416A0A29F3D320464FF4DB
:10220000805100220026FEF77DFF286847F23057F4
:10221000466200BF20464FF40041FEF76DFF29687B
:102220004E6A28B9BE42F5D9002080B201B0F0BD97
:1022300047F2305720464FF40041FEF75DFF296812
:102240000128496AA1EB060006D1B842F2D9002064
:1022500080B201B0F0BD00BF4CF60931C8F63D5167
:10226000A0FB0101480980B201B0F0BDFEE700000B
:1022700070B50368044653F8140F400711D40E4696
:10228000481C29D086BB00BF1868400527D4FEF73C
:102290003FFF236853F8140F400737D518684007ED
:1022A000F2D5002070BD00BF18684007F9D4186847
:1022B000400514D418684007F3D4186840050ED4BC
:1022C00018684007EDD41868400508D4186840071E
:1022D0004FF0000048BF70BD18684005E4D56FF4AA
:1022E00080601860042012E0154603E053F8140FD4
:1022F0004007D6D418684005F1D4FEF709FF401B0B
:102300002368B042F2D958694007EFD42020002159
:102310002022216384F83D2084F83E10226C104373
:102320002064012084F83C1070BD00002DE9F041CC
:10233000054600681E46144601F47F0201338FB241
:1023400042D0DDF81880B2F5803F40F087804069C8
:102350003840C01BB0FA80F04009844240F0C88089
:102360004EB924E040693840C01BB0FA80F0400903
:10237000844240F0BD80FEF7CBFEA0EB0801286848
:10238000B142EFD941693940C91BB1FA81F149091C
:102390008C42E7D19BE000BF40693840C01BB0FAD7
:1023A00080F0400984424FF0000040F0A280FEF728
:1023B000AFFE286841693940C91BB1FA81F149096A
:1023C0008C42E9D183E000BFB2F5803F24D100BF49
:1023D00041693940C91BB1FA81F149098C4240F089
:1023E000878041693940C91BB1FA81F149098C42A2
:1023F00040F07E8041693940C91BB1FA81F1490939
:102400008C4275D141693940C91BB1FA81F1490942
:102410008C42DDD06CE000BF81693940C91BB1FA44
:1024200081F149098C4263D181693940C91BB1FAF4
:1024300081F149098C425BD181693940C91BB1FAEC
:1024400081F149098C4253D181693940C91BB1FAE4
:1024500081F149098C42DFD04AE000BF80693840F1
:10246000C01BB0FA80F04009844241D146B923E054
:1024700080693840C01BB0FA80F04009844237D1EF
:10248000FEF746FEA0EB08012868B142F0D9816949
:102490003940C91BB1FA81F149098C42E8D116E0F3
:1024A00080693840C01BB0FA80F0400984424FF088
:1024B000000018BFBDE8F081FEF72AFE2868816998
:1024C0003940C91BB1FA81F149098C42E8D1002099
:1024D0002021286385F83D1085F83E00296C41F0E5
:1024E0002001296485F83C000120BDE8F08100BF8F
:1024F0000020BDE8F0810000F0B581B0044600681E
:102500001D4643698FB203EA0701B94202D1002098
:1025100001B0F0BD4169164601323CD0490512D4E4
:102520007EB300BFFEF7F4FD411B2068B14203D922
:1025300041693940B9422BD141693940B942E6D0AD
:1025400041694905EED5016841F4007101606FF4FD
:1025500080614161042000212022216384F83D2014
:1025600084F83E10226C1043206484F83C10012053
:1025700001B0F0BD41693940B942C8D0416949054F
:10258000E1D4FEF7C5FD206841693940B942F1D078
:102590002020E0E741694905D5D441693940B94275
:1025A000B5D041694905CED441693940B942AED070
:1025B00041694905C7D441693940B942A7D0416949
:1025C0004905C0D441693940B942E3D19FE70000D1
:1025D00070B50368044653F8140F000611D40E4674
:1025E000481C29D086BB00BF1868400527D4FEF7D9
:1025F0008FFD236853F8140F000637D518680006BE
:10260000F2D5002070BD00BF18680006F9D4186824
:10261000400514D418680006F3D4186840050ED499
:1026200018680006EDD41868400508D4186800063C
:102630004FF0000048BF70BD18684005E4D56FF446
:1026400080601860042012E0154603E053F8140F70
:102650000006D6D418684005F1D4FEF759FD401B9A
:102660002368B042F2D958690006EFD42020002137
:102670002022216384F83D2084F83E10226C104310
:102680002064012084F83C1070BD0000FEE70000CB
:10269000FEE7000080B540F2EC00C2F200004FF40B
:1026A0008061FDF774FE40F27000C2F2000000216C
:1026B000018080BDF0B583B06420FEF709FC40F2D4
:1026C000EC444FF42E40C2F20004ADF80A004FF083
:1026D000FF350DF10A022046782102230095FEF70E
:1026E000CFFD4FF40050ADF80A000DF10A0220466C
:1026F000782102230095FEF7C3FD00260DF10A02A2
:10270000204678210223ADF80A600095FEF7B8FD57
:102710004FF43040ADF80A000DF10A02204678214E
:1027200002230095FEF7ACFD4FF44840ADF80A00D7
:102730000DF10A022046782102230095FEF7A0FD44
:102740000DF10A02204678210223ADF80A600095B7
:10275000FEF796FD4FF48050ADF80A000DF10A0225
:102760002046782102230095FEF78AFD4FF480472A
:102770000DF10A02204678210223ADF80A70009577
:10278000FEF77EFD4FF40140ADF80A000DF10A029C
:102790002046782102230095FEF772FD4FF4FE409B
:1027A000ADF80A000DF10A022046782102230095B7
:1027B000FEF766FD4FF42140ADF80A000DF10A0264
:1027C0002046782102230095FEF75AFD4FF426405B
:1027D000ADF80A000DF10A02204678210223009587
:1027E000FEF74EFD4FF42840ADF80A000DF10A0245
:1027F0002046782102230095FEF742FD4FF47C50DD
:10280000ADF80A000DF10A02204678210223009556
:10281000FEF736FD4FF42440ADF80A000DF10A0230
:102820002046782102230095FEF72AFD4FF45340FD
:10283000ADF80A000DF10A02204678210223009526
:10284000FEF71EFD0DF10A02204678210223ADF8A5
:102850000A600095FEF714FD4FF45540ADF80A00EC
:102860000DF10A022046782102230095FEF708FDAB
:102870004FF40040ADF80A000DF10A02204678211D
:1028800002230095FEF7FCFC4FF45940ADF80A0016
:102890000DF10A022046782102230095FEF7F0FC94
:1028A0004FF47140ADF80A000DF10A02204678217C
:1028B00002230095FEF7E4FC4FF45A40ADF80A00FD
:1028C0000DF10A022046782102230095FEF7D8FC7C
:1028D0004FF49050ADF80A000DF10A02204678211D
:1028E00002230095FEF7CCFC4FF45B40ADF80A00E4
:1028F0000DF10A022046782102230095FEF7C0FC64
:102900000DF10A02204678210223ADF80A700095E5
:10291000FEF7B6FC4FF40D40ADF80A000DF10A02C7
:102920002046782102230095FEF7AAFC4FF4A05020
:10293000ADF80A000DF10A02204678210223009525
:10294000FEF79EFC4FF42F40ADF80A000DF10A028D
:102950002046782102230095FEF792FC40F2EC001D
:10296000C2F200004FF48061FDF711FD40F27000EB
:10297000C2F20000068000F00BF803B0F0BD0000CA
:1029800040F27002C2F200021070517070470000F5
:102990002DE9F04FA3B040F2EC00C2F200000DF1BF
:1029A0000B0540F2EC47A0F1800405F101094FF05E
:1029B00000084FF0FF36C2F200074FF0400B4FF017
:1029C000000A00BF4AF0B0008DF80C0038467821AC
:1029D0002A4602238DF80B800096FEF751FC3846FC
:1029E00078212A460223ADF80B800096FEF748FCBA
:1029F0004FF48050ADF80B00384678212A46022368
:102A00000096FEF73DFC80344846214680228DF832
:102A10000BB0FDF777FC384678212A4681230096D3
:102A2000FEF72EFC0AF1010ABAF1080FCAD123B051
:102A3000BDE8F08FA0F17F01C9B2A12938BF70476E
:102A400010B540F2700CC2F2000C9CF800209CF80B
:102A500001301146792A84BF002101335FFA83FED9
:102A6000BEF1070F88BF0023792AA0F1200098BF8C
:102A7000BEF1080FC0B242F6A86E28BF8CF8013034
:102A800000EB8000C0F6000EDAB20EEB00041EF878
:102A9000000040F2EC0E41EAC213C2F2000E0EF842
:102AA0000300D4F8010001EBC2127244C2F8010025
:102AB00000205071881D8CF80000BDE81040704760
:102AC0000178002908BF704710B5441EC8B2FFF74F
:102AD000B1FFA17801340029F8D1BDE8104070475A
:102AE0007047000070470000FEF7ECBC7047000024
:102AF000FEE7000094B0FEF7F3FC0AAC201D242191
:102B0000FDF745FC02200A9001200E9010200025C0
:102B10000F9020460395CDE901551195FEF77AFFF8
:102B200020B1EFF3108072B6FEE700BF0F20CDE9B1
:102B3000040504A80021CDE906550895FEF764FEBA
:102B400020B1EFF3108072B6FEE700BF4FF0020A2B
:102B500000276846CDF800A00297FEF7D3FD28B104
:102B6000EFF3108072B600BFFEE700BF41F218001D
:102B7000CDE90C77CDE90A77C4F20200016840F68E
:102B8000000841F0100101600168C4F2010801F081
:102B9000100104910499016808F5006541F00401F1
:102BA00001600168002201F00401049104990168A8
:102BB0004FF4005641F00801016000684FF40051E5
:102BC00000F00800049004982846FEF79BFA40465F
:102BD0004FF4815100224FF48159FEF793FA0A967F
:102BE00001240BA80AAE80E8900428463146FEF77F
:102BF00083F940463146CDE90A94CDE90C7AFEF7D7
:102C00007BF94FF40040CDE90A07404631460C9766
:102C1000FEF772F940F2EC40A8F53441C2F2000030
:102C200048F2A0624FF48043C0F2010280E88600BF
:102C3000C0E90373C0E90577C0E90777FEF76EFACC
:102C400020B1EFF3108072B6FEE700BF40F27405CA
:102C5000C2F200054FF080422846002140F8302F94
:102C600007224FF6FF730D91CDE90B11CDE9041149
:102C7000C0E90121C0E903318161FFF713F928B1EF
:102C8000EFF3108072B600BFFEE700BF4FF4805034
:102C900005F130060A900AA93046FFF7A9F928B1D4
:102CA000EFF3108072B600BFFEE700BF04A9304604
:102CB000FFF7C6F820B1EFF3108072B6FEE700BF51
:102CC00008F5E05000244FF46021C5E90004012616
:102CD00028462C732C75E961AC602E61FDF738FE37
:102CE00020B1EFF3108072B6FEE700BF0C9440F203
:102CF00074040320C2F20004CDE90A060AA92046A2
:102D0000FDF782FD20B1EFF3108072B6FEE700BF41
:102D100004F13000FFF746F9FFF7CCFC0DF1100984
:102D2000EB4656A70AAD0FF2FC0A15E00026204636
:102D3000FEF78EF800200621FFF722FE28463946CE
:102D40003246FDF75BFA2846FFF7BAFEFFF720FE92
:102D50004FF4FA70FEF7BCF8FFF71AFA80464846BF
:102D60005946FDF77BFC0646FFF794FC0020002146
:102D7000FFF706FEB6B19DF81020284625A1FDF705
:102D80003DFA2846FFF79CFE00200221FFF7F8FDE0
:102D90009DF8002028465146FDF730FA2846FFF7F7
:102DA0008FFE04E023A0FFF78BFEFFF7F1FD00206C
:102DB0000421FFF7E5FDB8F1000F0DD0B8F10C0FBD
:102DC00026A00AD8C8F10D0082B2284626A1FDF738
:102DD00015FA284601E000BF1BA0FFF771FE204650
:102DE000FDF7CEFF20466421FDF792FE2046FDF759
:102DF000ABFD41097C2999D840F2DD51884201D2CE
:102E0000642694E7C0F57A6080B240F63E214843DC
:102E1000060C8CE74169722054656D703A20256478
:102E2000204300004169722048756D3A20256420D6
:102E3000252500007374696C6C20776F726B696E66
:102E4000672E2E2E00000000776174657220746971
:102E50006C6C2073656E736F720000004E6F20778C
:102E600061746572000000007761746572206C65A2
:102E700076656C3A20256420636D0000736F696C81
:102E8000206D6F6973743A202564202525000000A9
:102E9000000000000000000001020304060708090A
:102EA0000000000001020304000000000000005FB9
:102EB00000000007000700147F147F14242A7F2AD3
:102EC000122313086462364955225000050300009E
:102ED000001C2241000041221C0014083E08140876
:102EE000083E080800503000000808080808006084
:102EF00060000020100804023E5149453E00427F18
:102F0000400042615149462141454B311814127F1E
:102F10001027454545393C4A4949300171090503A7
:102F20003649494936064949291E0036360000000F
:102F300056360000081422410014141414140041E1
:102F400022140802015109063E415D551E7E1111F1
:102F5000117E7F494949363E414141227F4141220C
:102F60001C7F494949417F090909013E4149497A84
:102F70007F0808087F00417F41002040413F017FDA
:102F8000081422417F404040407F020C027F7F04B2
:102F900008107F3E4141413E7F090909063E4151EB
:102FA000215E7F09192946464949493101017F01BE
:102FB000013F4040403F1F2040201F3F4038403FDE
:102FC00063140814630708700807615149454300FA
:102FD0007F41410002040810200041417F000402AB
:102FE00001020440404040400001020400205454CB
:102FF00054787F4844443838444444203844444852
:103000007F3854545418087E0901020C5252523E23
:103010007F0804047800447D40002040443D007F48
:103020001028440000417F40007C041804787C088C
:1030300004047838444444387C14141408081414E4
:10304000187C7C080404084854545420043F44402D
:10305000203C4040207C1C2040201C3C4030403C18
:1030600044281028440C5050503C4464544C4400B4
:103070000836410000007F000000413608000804C7
:10308000081008010202030405060708090A0B0CD0
:103090000D0E0F1010000000B830000800000020D6
:1030A0001000000050010008C83000081000002087
:1030B000380B000070010008010000001000000043
:0830C00000127A00000000007C
:04000005080000ED02
:00000001FF
